{
  "_format": "hh-sol-artifact-1",
  "contractName": "PrestamoContrato",
  "sourceName": "contracts/credit.sol",
  "abi": [
    {
      "inputs": [
        {
          "internalType": "address",
          "name": "_token",
          "type": "address"
        }
      ],
      "stateMutability": "nonpayable",
      "type": "constructor"
    },
    {
      "inputs": [
        {
          "internalType": "address",
          "name": "owner",
          "type": "address"
        }
      ],
      "name": "OwnableInvalidOwner",
      "type": "error"
    },
    {
      "inputs": [
        {
          "internalType": "address",
          "name": "account",
          "type": "address"
        }
      ],
      "name": "OwnableUnauthorizedAccount",
      "type": "error"
    },
    {
      "anonymous": false,
      "inputs": [
        {
          "indexed": true,
          "internalType": "address",
          "name": "previousOwner",
          "type": "address"
        },
        {
          "indexed": true,
          "internalType": "address",
          "name": "newOwner",
          "type": "address"
        }
      ],
      "name": "OwnershipTransferred",
      "type": "event"
    },
    {
      "anonymous": false,
      "inputs": [
        {
          "indexed": true,
          "internalType": "uint256",
          "name": "id",
          "type": "uint256"
        },
        {
          "indexed": false,
          "internalType": "address",
          "name": "prestatario",
          "type": "address"
        },
        {
          "indexed": false,
          "internalType": "uint256",
          "name": "monto",
          "type": "uint256"
        },
        {
          "indexed": false,
          "internalType": "uint256",
          "name": "plazo",
          "type": "uint256"
        }
      ],
      "name": "PrestamoCreado",
      "type": "event"
    },
    {
      "inputs": [],
      "name": "APR_BASE",
      "outputs": [
        {
          "internalType": "uint256",
          "name": "",
          "type": "uint256"
        }
      ],
      "stateMutability": "view",
      "type": "function"
    },
    {
      "inputs": [
        {
          "internalType": "uint256",
          "name": "_monto",
          "type": "uint256"
        },
        {
          "internalType": "uint256",
          "name": "_plazo",
          "type": "uint256"
        }
      ],
      "name": "crearPrestamo",
      "outputs": [],
      "stateMutability": "nonpayable",
      "type": "function"
    },
    {
      "inputs": [],
      "name": "maxMonto",
      "outputs": [
        {
          "internalType": "uint256",
          "name": "",
          "type": "uint256"
        }
      ],
      "stateMutability": "view",
      "type": "function"
    },
    {
      "inputs": [],
      "name": "maxPlazoMeses",
      "outputs": [
        {
          "internalType": "uint256",
          "name": "",
          "type": "uint256"
        }
      ],
      "stateMutability": "view",
      "type": "function"
    },
    {
      "inputs": [],
      "name": "owner",
      "outputs": [
        {
          "internalType": "address",
          "name": "",
          "type": "address"
        }
      ],
      "stateMutability": "view",
      "type": "function"
    },
    {
      "inputs": [],
      "name": "porcentajePrestatario",
      "outputs": [
        {
          "internalType": "uint256",
          "name": "",
          "type": "uint256"
        }
      ],
      "stateMutability": "view",
      "type": "function"
    },
    {
      "inputs": [
        {
          "internalType": "uint256",
          "name": "",
          "type": "uint256"
        }
      ],
      "name": "prestamos",
      "outputs": [
        {
          "internalType": "address",
          "name": "prestatario",
          "type": "address"
        },
        {
          "internalType": "uint256",
          "name": "monto",
          "type": "uint256"
        },
        {
          "internalType": "uint256",
          "name": "plazo",
          "type": "uint256"
        },
        {
          "internalType": "uint256",
          "name": "fechaInicio",
          "type": "uint256"
        }
      ],
      "stateMutability": "view",
      "type": "function"
    },
    {
      "inputs": [
        {
          "internalType": "uint256",
          "name": "_id",
          "type": "uint256"
        }
      ],
      "name": "reembolsarPrestamo",
      "outputs": [],
      "stateMutability": "nonpayable",
      "type": "function"
    },
    {
      "inputs": [],
      "name": "renounceOwnership",
      "outputs": [],
      "stateMutability": "nonpayable",
      "type": "function"
    },
    {
      "inputs": [],
      "name": "tasaInteresAnual",
      "outputs": [
        {
          "internalType": "uint256",
          "name": "",
          "type": "uint256"
        }
      ],
      "stateMutability": "view",
      "type": "function"
    },
    {
      "inputs": [],
      "name": "token",
      "outputs": [
        {
          "internalType": "address",
          "name": "",
          "type": "address"
        }
      ],
      "stateMutability": "view",
      "type": "function"
    },
    {
      "inputs": [
        {
          "internalType": "address",
          "name": "newOwner",
          "type": "address"
        }
      ],
      "name": "transferOwnership",
      "outputs": [],
      "stateMutability": "nonpayable",
      "type": "function"
    },
    {
      "inputs": [
        {
          "internalType": "uint256",
          "name": "_monto",
          "type": "uint256"
        }
      ],
      "name": "transferirFondos",
      "outputs": [],
      "stateMutability": "nonpayable",
      "type": "function"
    }
  ],
  "bytecode": "0x608060405269021e19e0c9bab240000060025560606003556007600455600460055534801561002d57600080fd5b50604051610b56380380610b5683398101604081905261004c916100fa565b806001600160a01b03811661007b57604051631e4fbdf760e01b81526000600482015260240160405180910390fd5b610084816100aa565b50600180546001600160a01b0319166001600160a01b039290921691909117905561012a565b600080546001600160a01b038381166001600160a01b0319831681178455604051919092169283917f8be0079c531659141344cd1fd0a4f28419497f9722a3daafe3b4186f6b6457e09190a35050565b60006020828403121561010c57600080fd5b81516001600160a01b038116811461012357600080fd5b9392505050565b610a1d806101396000396000f3fe608060405234801561001057600080fd5b50600436106100cf5760003560e01c80638da5cb5b1161008c578063dea4237011610066578063dea423701461019c578063e7ba4de2146101af578063f2fde38b146101b8578063fc0c546a146101cb57600080fd5b80638da5cb5b1461015b57806396f2fea414610180578063a4d0faca1461019357600080fd5b806308081347146100d45780632fe8bf29146100ef5780633deb9786146100f85780635a0d5ce914610135578063715018a61461014a5780637c9e772214610152575b600080fd5b6100dc606481565b6040519081526020015b60405180910390f35b6100dc60035481565b61010b6101063660046108b0565b6101de565b604080516001600160a01b03909516855260208501939093529183015260608201526080016100e6565b6101486101433660046108b0565b610222565b005b6101486102c2565b6100dc60045481565b6000546001600160a01b03165b6040516001600160a01b0390911681526020016100e6565b61014861018e3660046108c9565b6102d6565b6100dc60025481565b6101486101aa3660046108b0565b610644565b6100dc60055481565b6101486101c63660046108eb565b6107f5565b600154610168906001600160a01b031681565b600681815481106101ee57600080fd5b600091825260209091206004909102018054600182015460028301546003909301546001600160a01b039092169350919084565b61022a610833565b6001546001600160a01b031663a9059cbb61024d6000546001600160a01b031690565b6040516001600160e01b031960e084901b1681526001600160a01b039091166004820152602481018490526044016020604051808303816000875af115801561029a573d6000803e3d6000fd5b505050506040513d601f19601f820116820180604052508101906102be919061091b565b5050565b6102ca610833565b6102d46000610860565b565b816000811180156102e957506002548111155b61032d5760405162461bcd60e51b815260206004820152601060248201526f4d6f6e746f206e6f2076c3a16c69646f60801b60448201526064015b60405180910390fd5b8160008111801561034057506003548111155b61037f5760405162461bcd60e51b815260206004820152601060248201526f506c617a6f206e6f2076c3a16c69646f60801b6044820152606401610324565b6001546040516370a0823160e01b8152336004820152859182916001600160a01b03909116906370a0823190602401602060405180830381865afa1580156103cb573d6000803e3d6000fd5b505050506040513d601f19601f820116820180604052508101906103ef919061093d565b10156104345760405162461bcd60e51b8152602060048201526014602482015273466f6e646f7320696e737566696369656e74657360601b6044820152606401610324565b6001546040516323b872dd60e01b8152336004820152306024820152604481018790526001600160a01b03909116906323b872dd906064016020604051808303816000875af115801561048b573d6000803e3d6000fd5b505050506040513d601f19601f820116820180604052508101906104af919061091b565b5060006104be6064600c61096c565b6104c990606461096c565b85600454886104d8919061096c565b6104e2919061096c565b6104ec9190610989565b905060006104fa82886109ab565b604080516080810182523381526020810183815291810189815242606083019081526006805460018082018355600083905285517ff652222313e28459528d920b65115c16c04f3efc82aaedc97be59f3f377c0d3f600490930292830180546001600160a01b0319166001600160a01b0390921691909117905595517ff652222313e28459528d920b65115c16c04f3efc82aaedc97be59f3f377c0d4082015592517ff652222313e28459528d920b65115c16c04f3efc82aaedc97be59f3f377c0d4184015590517ff652222313e28459528d920b65115c16c04f3efc82aaedc97be59f3f377c0d429092019190915554929350916105f991906109be565b60408051338152602081018590529081018990527fbd431e6b50aa770ff8dae0a8483965089e6aea2a36484e401c1a5905cec87d2e9060600160405180910390a25050505050505050565b60065481106106955760405162461bcd60e51b815260206004820152601a60248201527f4944206465207072c3a97374616d6f206e6f2076c3a16c69646f0000000000006044820152606401610324565b6000600682815481106106aa576106aa6109d1565b6000918252602090912060049091020180549091506001600160a01b031633146107305760405162461bcd60e51b815260206004820152603160248201527f536f6c6f20656c20707265737461746172696f207075656465207265656d626f6044820152706c73617220656c207072c3a97374616d6f60781b6064820152608401610324565b6001805482549183015460405163a9059cbb60e01b81526001600160a01b039384166004820152602481019190915291169063a9059cbb906044016020604051808303816000875af115801561078a573d6000803e3d6000fd5b505050506040513d601f19601f820116820180604052508101906107ae919061091b565b50600682815481106107c2576107c26109d1565b60009182526020822060049091020180546001600160a01b03191681556001810182905560028101829055600301555050565b6107fd610833565b6001600160a01b03811661082757604051631e4fbdf760e01b815260006004820152602401610324565b61083081610860565b50565b6000546001600160a01b031633146102d45760405163118cdaa760e01b8152336004820152602401610324565b600080546001600160a01b038381166001600160a01b0319831681178455604051919092169283917f8be0079c531659141344cd1fd0a4f28419497f9722a3daafe3b4186f6b6457e09190a35050565b6000602082840312156108c257600080fd5b5035919050565b600080604083850312156108dc57600080fd5b50508035926020909101359150565b6000602082840312156108fd57600080fd5b81356001600160a01b038116811461091457600080fd5b9392505050565b60006020828403121561092d57600080fd5b8151801515811461091457600080fd5b60006020828403121561094f57600080fd5b5051919050565b634e487b7160e01b600052601160045260246000fd5b808202811582820484141761098357610983610956565b92915050565b6000826109a657634e487b7160e01b600052601260045260246000fd5b500490565b8082018082111561098357610983610956565b8181038181111561098357610983610956565b634e487b7160e01b600052603260045260246000fdfea2646970667358221220ca2c2e9685b5962b8241cf17fa9cb114ecd61fcf7aff60fcb8be2ed9c0d257f764736f6c63430008140033",
  "linkReferences": {},
  "deployedLinkReferences": {}
}